{
    "contractName": "Poap",
    "abi": [
        {
            "anonymous": false,
            "inputs": [
                {
                    "indexed": true,
                    "internalType": "address",
                    "name": "account",
                    "type": "address"
                }
            ],
            "name": "AdminAdded",
            "type": "event"
        },
        {
            "anonymous": false,
            "inputs": [
                {
                    "indexed": true,
                    "internalType": "address",
                    "name": "account",
                    "type": "address"
                }
            ],
            "name": "AdminRemoved",
            "type": "event"
        },
        {
            "anonymous": false,
            "inputs": [
                {
                    "indexed": true,
                    "internalType": "address",
                    "name": "owner",
                    "type": "address"
                },
                {
                    "indexed": true,
                    "internalType": "address",
                    "name": "approved",
                    "type": "address"
                },
                {
                    "indexed": true,
                    "internalType": "uint256",
                    "name": "tokenId",
                    "type": "uint256"
                }
            ],
            "name": "Approval",
            "type": "event"
        },
        {
            "anonymous": false,
            "inputs": [
                {
                    "indexed": true,
                    "internalType": "address",
                    "name": "owner",
                    "type": "address"
                },
                {
                    "indexed": true,
                    "internalType": "address",
                    "name": "operator",
                    "type": "address"
                },
                {
                    "indexed": false,
                    "internalType": "bool",
                    "name": "approved",
                    "type": "bool"
                }
            ],
            "name": "ApprovalForAll",
            "type": "event"
        },
        {
            "anonymous": false,
            "inputs": [
                {
                    "indexed": true,
                    "internalType": "uint256",
                    "name": "eventId",
                    "type": "uint256"
                },
                {
                    "indexed": true,
                    "internalType": "address",
                    "name": "account",
                    "type": "address"
                }
            ],
            "name": "EventMinterAdded",
            "type": "event"
        },
        {
            "anonymous": false,
            "inputs": [
                {
                    "indexed": true,
                    "internalType": "uint256",
                    "name": "eventId",
                    "type": "uint256"
                },
                {
                    "indexed": true,
                    "internalType": "address",
                    "name": "account",
                    "type": "address"
                }
            ],
            "name": "EventMinterRemoved",
            "type": "event"
        },
        {
            "anonymous": false,
            "inputs": [
                {
                    "indexed": false,
                    "internalType": "uint256",
                    "name": "eventId",
                    "type": "uint256"
                },
                {
                    "indexed": false,
                    "internalType": "uint256",
                    "name": "tokenId",
                    "type": "uint256"
                }
            ],
            "name": "EventToken",
            "type": "event"
        },
        {
            "anonymous": false,
            "inputs": [
                {
                    "indexed": false,
                    "internalType": "address",
                    "name": "account",
                    "type": "address"
                }
            ],
            "name": "Paused",
            "type": "event"
        },
        {
            "anonymous": false,
            "inputs": [
                {
                    "indexed": true,
                    "internalType": "address",
                    "name": "from",
                    "type": "address"
                },
                {
                    "indexed": true,
                    "internalType": "address",
                    "name": "to",
                    "type": "address"
                },
                {
                    "indexed": true,
                    "internalType": "uint256",
                    "name": "tokenId",
                    "type": "uint256"
                }
            ],
            "name": "Transfer",
            "type": "event"
        },
        {
            "anonymous": false,
            "inputs": [
                {
                    "indexed": false,
                    "internalType": "address",
                    "name": "account",
                    "type": "address"
                }
            ],
            "name": "Unpaused",
            "type": "event"
        },
        {
            "constant": false,
            "inputs": [
                {
                    "internalType": "address",
                    "name": "account",
                    "type": "address"
                }
            ],
            "name": "addAdmin",
            "outputs": [],
            "payable": false,
            "stateMutability": "nonpayable",
            "type": "function"
        },
        {
            "constant": false,
            "inputs": [
                {
                    "internalType": "uint256",
                    "name": "eventId",
                    "type": "uint256"
                },
                {
                    "internalType": "address",
                    "name": "account",
                    "type": "address"
                }
            ],
            "name": "addEventMinter",
            "outputs": [],
            "payable": false,
            "stateMutability": "nonpayable",
            "type": "function"
        },
        {
            "constant": true,
            "inputs": [
                {
                    "internalType": "address",
                    "name": "owner",
                    "type": "address"
                }
            ],
            "name": "balanceOf",
            "outputs": [
                {
                    "internalType": "uint256",
                    "name": "",
                    "type": "uint256"
                }
            ],
            "payable": false,
            "stateMutability": "view",
            "type": "function"
        },
        {
            "constant": true,
            "inputs": [
                {
                    "internalType": "uint256",
                    "name": "tokenId",
                    "type": "uint256"
                }
            ],
            "name": "getApproved",
            "outputs": [
                {
                    "internalType": "address",
                    "name": "",
                    "type": "address"
                }
            ],
            "payable": false,
            "stateMutability": "view",
            "type": "function"
        },
        {
            "constant": true,
            "inputs": [
                {
                    "internalType": "address",
                    "name": "account",
                    "type": "address"
                }
            ],
            "name": "isAdmin",
            "outputs": [
                {
                    "internalType": "bool",
                    "name": "",
                    "type": "bool"
                }
            ],
            "payable": false,
            "stateMutability": "view",
            "type": "function"
        },
        {
            "constant": true,
            "inputs": [
                {
                    "internalType": "address",
                    "name": "owner",
                    "type": "address"
                },
                {
                    "internalType": "address",
                    "name": "operator",
                    "type": "address"
                }
            ],
            "name": "isApprovedForAll",
            "outputs": [
                {
                    "internalType": "bool",
                    "name": "",
                    "type": "bool"
                }
            ],
            "payable": false,
            "stateMutability": "view",
            "type": "function"
        },
        {
            "constant": true,
            "inputs": [
                {
                    "internalType": "uint256",
                    "name": "eventId",
                    "type": "uint256"
                },
                {
                    "internalType": "address",
                    "name": "account",
                    "type": "address"
                }
            ],
            "name": "isEventMinter",
            "outputs": [
                {
                    "internalType": "bool",
                    "name": "",
                    "type": "bool"
                }
            ],
            "payable": false,
            "stateMutability": "view",
            "type": "function"
        },
        {
            "constant": true,
            "inputs": [
                {
                    "internalType": "uint256",
                    "name": "tokenId",
                    "type": "uint256"
                }
            ],
            "name": "ownerOf",
            "outputs": [
                {
                    "internalType": "address",
                    "name": "",
                    "type": "address"
                }
            ],
            "payable": false,
            "stateMutability": "view",
            "type": "function"
        },
        {
            "constant": false,
            "inputs": [],
            "name": "pause",
            "outputs": [],
            "payable": false,
            "stateMutability": "nonpayable",
            "type": "function"
        },
        {
            "constant": true,
            "inputs": [],
            "name": "paused",
            "outputs": [
                {
                    "internalType": "bool",
                    "name": "",
                    "type": "bool"
                }
            ],
            "payable": false,
            "stateMutability": "view",
            "type": "function"
        },
        {
            "constant": false,
            "inputs": [
                {
                    "internalType": "uint256",
                    "name": "eventId",
                    "type": "uint256"
                },
                {
                    "internalType": "address",
                    "name": "account",
                    "type": "address"
                }
            ],
            "name": "removeEventMinter",
            "outputs": [],
            "payable": false,
            "stateMutability": "nonpayable",
            "type": "function"
        },
        {
            "constant": false,
            "inputs": [],
            "name": "renounceAdmin",
            "outputs": [],
            "payable": false,
            "stateMutability": "nonpayable",
            "type": "function"
        },
        {
            "constant": false,
            "inputs": [
                {
                    "internalType": "uint256",
                    "name": "eventId",
                    "type": "uint256"
                }
            ],
            "name": "renounceEventMinter",
            "outputs": [],
            "payable": false,
            "stateMutability": "nonpayable",
            "type": "function"
        },
        {
            "constant": false,
            "inputs": [
                {
                    "internalType": "address",
                    "name": "from",
                    "type": "address"
                },
                {
                    "internalType": "address",
                    "name": "to",
                    "type": "address"
                },
                {
                    "internalType": "uint256",
                    "name": "tokenId",
                    "type": "uint256"
                }
            ],
            "name": "safeTransferFrom",
            "outputs": [],
            "payable": false,
            "stateMutability": "nonpayable",
            "type": "function"
        },
        {
            "constant": false,
            "inputs": [
                {
                    "internalType": "address",
                    "name": "from",
                    "type": "address"
                },
                {
                    "internalType": "address",
                    "name": "to",
                    "type": "address"
                },
                {
                    "internalType": "uint256",
                    "name": "tokenId",
                    "type": "uint256"
                },
                {
                    "internalType": "bytes",
                    "name": "_data",
                    "type": "bytes"
                }
            ],
            "name": "safeTransferFrom",
            "outputs": [],
            "payable": false,
            "stateMutability": "nonpayable",
            "type": "function"
        },
        {
            "constant": true,
            "inputs": [
                {
                    "internalType": "bytes4",
                    "name": "interfaceId",
                    "type": "bytes4"
                }
            ],
            "name": "supportsInterface",
            "outputs": [
                {
                    "internalType": "bool",
                    "name": "",
                    "type": "bool"
                }
            ],
            "payable": false,
            "stateMutability": "view",
            "type": "function"
        },
        {
            "constant": true,
            "inputs": [
                {
                    "internalType": "uint256",
                    "name": "index",
                    "type": "uint256"
                }
            ],
            "name": "tokenByIndex",
            "outputs": [
                {
                    "internalType": "uint256",
                    "name": "",
                    "type": "uint256"
                }
            ],
            "payable": false,
            "stateMutability": "view",
            "type": "function"
        },
        {
            "constant": true,
            "inputs": [
                {
                    "internalType": "address",
                    "name": "owner",
                    "type": "address"
                },
                {
                    "internalType": "uint256",
                    "name": "index",
                    "type": "uint256"
                }
            ],
            "name": "tokenOfOwnerByIndex",
            "outputs": [
                {
                    "internalType": "uint256",
                    "name": "",
                    "type": "uint256"
                }
            ],
            "payable": false,
            "stateMutability": "view",
            "type": "function"
        },
        {
            "constant": true,
            "inputs": [],
            "name": "totalSupply",
            "outputs": [
                {
                    "internalType": "uint256",
                    "name": "",
                    "type": "uint256"
                }
            ],
            "payable": false,
            "stateMutability": "view",
            "type": "function"
        },
        {
            "constant": false,
            "inputs": [],
            "name": "unpause",
            "outputs": [],
            "payable": false,
            "stateMutability": "nonpayable",
            "type": "function"
        },
        {
            "constant": true,
            "inputs": [],
            "name": "name",
            "outputs": [
                {
                    "internalType": "string",
                    "name": "",
                    "type": "string"
                }
            ],
            "payable": false,
            "stateMutability": "view",
            "type": "function"
        },
        {
            "constant": true,
            "inputs": [],
            "name": "symbol",
            "outputs": [
                {
                    "internalType": "string",
                    "name": "",
                    "type": "string"
                }
            ],
            "payable": false,
            "stateMutability": "view",
            "type": "function"
        },
        {
            "constant": true,
            "inputs": [
                {
                    "internalType": "uint256",
                    "name": "tokenId",
                    "type": "uint256"
                }
            ],
            "name": "tokenEvent",
            "outputs": [
                {
                    "internalType": "uint256",
                    "name": "",
                    "type": "uint256"
                }
            ],
            "payable": false,
            "stateMutability": "view",
            "type": "function"
        },
        {
            "constant": true,
            "inputs": [
                {
                    "internalType": "address",
                    "name": "owner",
                    "type": "address"
                },
                {
                    "internalType": "uint256",
                    "name": "index",
                    "type": "uint256"
                }
            ],
            "name": "tokenDetailsOfOwnerByIndex",
            "outputs": [
                {
                    "internalType": "uint256",
                    "name": "tokenId",
                    "type": "uint256"
                },
                {
                    "internalType": "uint256",
                    "name": "eventId",
                    "type": "uint256"
                }
            ],
            "payable": false,
            "stateMutability": "view",
            "type": "function"
        },
        {
            "constant": true,
            "inputs": [
                {
                    "internalType": "uint256",
                    "name": "tokenId",
                    "type": "uint256"
                }
            ],
            "name": "tokenURI",
            "outputs": [
                {
                    "internalType": "string",
                    "name": "",
                    "type": "string"
                }
            ],
            "payable": false,
            "stateMutability": "view",
            "type": "function"
        },
        {
            "constant": false,
            "inputs": [
                {
                    "internalType": "string",
                    "name": "baseURI",
                    "type": "string"
                }
            ],
            "name": "setBaseURI",
            "outputs": [],
            "payable": false,
            "stateMutability": "nonpayable",
            "type": "function"
        },
        {
            "constant": false,
            "inputs": [
                {
                    "internalType": "address",
                    "name": "to",
                    "type": "address"
                },
                {
                    "internalType": "uint256",
                    "name": "tokenId",
                    "type": "uint256"
                }
            ],
            "name": "approve",
            "outputs": [],
            "payable": false,
            "stateMutability": "nonpayable",
            "type": "function"
        },
        {
            "constant": false,
            "inputs": [
                {
                    "internalType": "address",
                    "name": "to",
                    "type": "address"
                },
                {
                    "internalType": "bool",
                    "name": "approved",
                    "type": "bool"
                }
            ],
            "name": "setApprovalForAll",
            "outputs": [],
            "payable": false,
            "stateMutability": "nonpayable",
            "type": "function"
        },
        {
            "constant": false,
            "inputs": [
                {
                    "internalType": "address",
                    "name": "from",
                    "type": "address"
                },
                {
                    "internalType": "address",
                    "name": "to",
                    "type": "address"
                },
                {
                    "internalType": "uint256",
                    "name": "tokenId",
                    "type": "uint256"
                }
            ],
            "name": "transferFrom",
            "outputs": [],
            "payable": false,
            "stateMutability": "nonpayable",
            "type": "function"
        },
        {
            "constant": false,
            "inputs": [
                {
                    "internalType": "uint256",
                    "name": "eventId",
                    "type": "uint256"
                },
                {
                    "internalType": "address",
                    "name": "to",
                    "type": "address"
                }
            ],
            "name": "mintToken",
            "outputs": [
                {
                    "internalType": "bool",
                    "name": "",
                    "type": "bool"
                }
            ],
            "payable": false,
            "stateMutability": "nonpayable",
            "type": "function"
        },
        {
            "constant": false,
            "inputs": [
                {
                    "internalType": "uint256",
                    "name": "eventId",
                    "type": "uint256"
                },
                {
                    "internalType": "uint256",
                    "name": "tokenId",
                    "type": "uint256"
                },
                {
                    "internalType": "address",
                    "name": "to",
                    "type": "address"
                }
            ],
            "name": "mintToken",
            "outputs": [
                {
                    "internalType": "bool",
                    "name": "",
                    "type": "bool"
                }
            ],
            "payable": false,
            "stateMutability": "nonpayable",
            "type": "function"
        },
        {
            "constant": false,
            "inputs": [
                {
                    "internalType": "uint256",
                    "name": "eventId",
                    "type": "uint256"
                },
                {
                    "internalType": "address[]",
                    "name": "to",
                    "type": "address[]"
                }
            ],
            "name": "mintEventToManyUsers",
            "outputs": [
                {
                    "internalType": "bool",
                    "name": "",
                    "type": "bool"
                }
            ],
            "payable": false,
            "stateMutability": "nonpayable",
            "type": "function"
        },
        {
            "constant": false,
            "inputs": [
                {
                    "internalType": "uint256[]",
                    "name": "eventIds",
                    "type": "uint256[]"
                },
                {
                    "internalType": "address",
                    "name": "to",
                    "type": "address"
                }
            ],
            "name": "mintUserToManyEvents",
            "outputs": [
                {
                    "internalType": "bool",
                    "name": "",
                    "type": "bool"
                }
            ],
            "payable": false,
            "stateMutability": "nonpayable",
            "type": "function"
        },
        {
            "constant": false,
            "inputs": [
                {
                    "internalType": "uint256",
                    "name": "tokenId",
                    "type": "uint256"
                }
            ],
            "name": "burn",
            "outputs": [],
            "payable": false,
            "stateMutability": "nonpayable",
            "type": "function"
        },
        {
            "constant": false,
            "inputs": [],
            "name": "initialize",
            "outputs": [],
            "payable": false,
            "stateMutability": "nonpayable",
            "type": "function"
        },
        {
            "constant": false,
            "inputs": [
                {
                    "internalType": "string",
                    "name": "__name",
                    "type": "string"
                },
                {
                    "internalType": "string",
                    "name": "__symbol",
                    "type": "string"
                },
                {
                    "internalType": "string",
                    "name": "__baseURI",
                    "type": "string"
                },
                {
                    "internalType": "address[]",
                    "name": "admins",
                    "type": "address[]"
                }
            ],
            "name": "initialize",
            "outputs": [],
            "payable": false,
            "stateMutability": "nonpayable",
            "type": "function"
        },
        {
            "constant": false,
            "inputs": [
                {
                    "internalType": "address",
                    "name": "sender",
                    "type": "address"
                }
            ],
            "name": "initialize",
            "outputs": [],
            "payable": false,
            "stateMutability": "nonpayable",
            "type": "function"
        },
        {
            "constant": false,
            "inputs": [
                {
                    "internalType": "address",
                    "name": "account",
                    "type": "address"
                }
            ],
            "name": "removeAdmin",
            "outputs": [],
            "payable": false,
            "stateMutability": "nonpayable",
            "type": "function"
        }
    ],
    "bytecode": "0x608060405234801561001057600080fd5b50613e78806100206000396000f3fe608060405234801561001057600080fd5b50600436106102325760003560e01c80635c975abb1161013057806395d89b41116100b8578063c4d66de81161007c578063c4d66de814610fc6578063c87b56dd1461100a578063d890c8e2146110b1578063e985e9c514611121578063f980f3dc1461119d57610232565b806395d89b4114610d3a5780639cd3cad614610dbd578063a140ae2314610e0b578063a22cb46514610e71578063b88d4fde14610ec157610232565b806370a08231116100ff57806370a0823114610a475780638129fc1c14610a9f5780638456cb5914610aa95780638bad0c0a14610ab35780638d23209414610abd57610232565b80635c975abb1461090a5780636352211e1461092c57806367e971ce1461099a5780637048027514610a0357610232565b806323b872dd116101be5780633f4ba83a116101825780633f4ba83a1461076757806342842e0e1461077157806342966c68146107df5780634f6ccce71461080d57806355f804b31461084f57610232565b806323b872dd146104fb57806324d7806c14610569578063278d9c41146105c557806328db38b41461069f5780632f745c591461070557610232565b8063095ea7b311610205578063095ea7b3146103bb578063127a529814610409578063166c4b051461044b5780631785f53c1461049957806318160ddd146104dd57610232565b806301ffc9a71461023757806302c37ddc1461029c57806306fdde03146102ca578063081812fc1461034d575b600080fd5b6102826004803603602081101561024d57600080fd5b8101908080357bffffffffffffffffffffffffffffffffffffffffffffffffffffffff1916906020019092919050505061128d565b604051808215151515815260200191505060405180910390f35b6102c8600480360360208110156102b257600080fd5b81019080803590602001909291905050506112f5565b005b6102d2611302565b6040518080602001828103825283818151815260200191508051906020019080838360005b838110156103125780820151818401526020810190506102f7565b50505050905090810190601f16801561033f5780820380516001836020036101000a031916815260200191505b509250505060405180910390f35b6103796004803603602081101561036357600080fd5b81019080803590602001909291905050506113a5565b604051808273ffffffffffffffffffffffffffffffffffffffff1673ffffffffffffffffffffffffffffffffffffffff16815260200191505060405180910390f35b610407600480360360408110156103d157600080fd5b81019080803573ffffffffffffffffffffffffffffffffffffffff169060200190929190803590602001909291905050506113f4565b005b6104356004803603602081101561041f57600080fd5b810190808035906020019092919050505061141d565b6040518082815260200191505060405180910390f35b6104976004803603604081101561046157600080fd5b8101908080359060200190929190803573ffffffffffffffffffffffffffffffffffffffff16906020019092919050505061143b565b005b6104db600480360360208110156104af57600080fd5b81019080803573ffffffffffffffffffffffffffffffffffffffff16906020019092919050505061145b565b005b6104e5611479565b6040518082815260200191505060405180910390f35b6105676004803603606081101561051157600080fd5b81019080803573ffffffffffffffffffffffffffffffffffffffff169060200190929190803573ffffffffffffffffffffffffffffffffffffffff16906020019092919080359060200190929190505050611486565b005b6105ab6004803603602081101561057f57600080fd5b81019080803573ffffffffffffffffffffffffffffffffffffffff1690602001909291905050506114b1565b604051808215151515815260200191505060405180910390f35b610685600480360360408110156105db57600080fd5b81019080803590602001909291908035906020019064010000000081111561060257600080fd5b82018360208201111561061457600080fd5b8035906020019184602083028401116401000000008311171561063657600080fd5b919080806020026020016040519081016040528093929190818152602001838360200280828437600081840152601f19601f8201169050808301925050505050505091929192905050506114ce565b604051808215151515815260200191505060405180910390f35b6106eb600480360360408110156106b557600080fd5b8101908080359060200190929190803573ffffffffffffffffffffffffffffffffffffffff16906020019092919050505061155e565b604051808215151515815260200191505060405180910390f35b6107516004803603604081101561071b57600080fd5b81019080803573ffffffffffffffffffffffffffffffffffffffff1690602001909291908035906020019092919050505061159d565b6040518082815260200191505060405180910390f35b61076f611610565b005b6107dd6004803603606081101561078757600080fd5b81019080803573ffffffffffffffffffffffffffffffffffffffff169060200190929190803573ffffffffffffffffffffffffffffffffffffffff169060200190929190803590602001909291905050506116bd565b005b61080b600480360360208110156107f557600080fd5b81019080803590602001909291905050506116dd565b005b6108396004803603602081101561082357600080fd5b810190808035906020019092919050505061170c565b6040518082815260200191505060405180910390f35b6109086004803603602081101561086557600080fd5b810190808035906020019064010000000081111561088257600080fd5b82018360208201111561089457600080fd5b803590602001918460018302840111640100000000831117156108b657600080fd5b91908080601f016020809104026020016040519081016040528093929190818152602001838380828437600081840152601f19601f820116905080830192505050505050509192919290505050611740565b005b610912611788565b604051808215151515815260200191505060405180910390f35b6109586004803603602081101561094257600080fd5b81019080803590602001909291905050506117a0565b604051808273ffffffffffffffffffffffffffffffffffffffff1673ffffffffffffffffffffffffffffffffffffffff16815260200191505060405180910390f35b6109e6600480360360408110156109b057600080fd5b81019080803573ffffffffffffffffffffffffffffffffffffffff1690602001909291908035906020019092919050505061181c565b604051808381526020018281526020019250505060405180910390f35b610a4560048036036020811015610a1957600080fd5b81019080803573ffffffffffffffffffffffffffffffffffffffff16906020019092919050505061183d565b005b610a8960048036036020811015610a5d57600080fd5b81019080803573ffffffffffffffffffffffffffffffffffffffff16906020019092919050505061185b565b6040518082815260200191505060405180910390f35b610aa76118dd565b005b610ab16119e9565b005b610abb611a97565b005b610d3860048036036080811015610ad357600080fd5b8101908080359060200190640100000000811115610af057600080fd5b820183602082011115610b0257600080fd5b80359060200191846001830284011164010000000083111715610b2457600080fd5b91908080601f016020809104026020016040519081016040528093929190818152602001838380828437600081840152601f19601f82011690508083019250505050505050919291929080359060200190640100000000811115610b8757600080fd5b820183602082011115610b9957600080fd5b80359060200191846001830284011164010000000083111715610bbb57600080fd5b91908080601f016020809104026020016040519081016040528093929190818152602001838380828437600081840152601f19601f82011690508083019250505050505050919291929080359060200190640100000000811115610c1e57600080fd5b820183602082011115610c3057600080fd5b80359060200191846001830284011164010000000083111715610c5257600080fd5b91908080601f016020809104026020016040519081016040528093929190818152602001838380828437600081840152601f19601f82011690508083019250505050505050919291929080359060200190640100000000811115610cb557600080fd5b820183602082011115610cc757600080fd5b80359060200191846020830284011164010000000083111715610ce957600080fd5b919080806020026020016040519081016040528093929190818152602001838360200280828437600081840152601f19601f820116905080830192505050505050509192919290505050611aa2565b005b610d42611c46565b6040518080602001828103825283818151815260200191508051906020019080838360005b83811015610d82578082015181840152602081019050610d67565b50505050905090810190601f168015610daf5780820380516001836020036101000a031916815260200191505b509250505060405180910390f35b610e0960048036036040811015610dd357600080fd5b8101908080359060200190929190803573ffffffffffffffffffffffffffffffffffffffff169060200190929190505050611ce9565b005b610e5760048036036040811015610e2157600080fd5b8101908080359060200190929190803573ffffffffffffffffffffffffffffffffffffffff169060200190929190505050611d0c565b604051808215151515815260200191505060405180910390f35b610ebf60048036036040811015610e8757600080fd5b81019080803573ffffffffffffffffffffffffffffffffffffffff169060200190929190803515159060200190929190505050611d66565b005b610fc460048036036080811015610ed757600080fd5b81019080803573ffffffffffffffffffffffffffffffffffffffff169060200190929190803573ffffffffffffffffffffffffffffffffffffffff1690602001909291908035906020019092919080359060200190640100000000811115610f3e57600080fd5b820183602082011115610f5057600080fd5b80359060200191846001830284011164010000000083111715610f7257600080fd5b91908080601f016020809104026020016040519081016040528093929190818152602001838380828437600081840152601f19601f820116905080830192505050505050509192919290505050611d8f565b005b61100860048036036020811015610fdc57600080fd5b81019080803573ffffffffffffffffffffffffffffffffffffffff169060200190929190505050611db5565b005b6110366004803603602081101561102057600080fd5b8101908080359060200190929190505050611ebd565b6040518080602001828103825283818151815260200191508051906020019080838360005b8381101561107657808201518184015260208101905061105b565b50505050905090810190601f1680156110a35780820380516001836020036101000a031916815260200191505b509250505060405180910390f35b611107600480360360608110156110c757600080fd5b810190808035906020019092919080359060200190929190803573ffffffffffffffffffffffffffffffffffffffff169060200190929190505050611fdc565b604051808215151515815260200191505060405180910390f35b6111836004803603604081101561113757600080fd5b81019080803573ffffffffffffffffffffffffffffffffffffffff169060200190929190803573ffffffffffffffffffffffffffffffffffffffff169060200190929190505050612022565b604051808215151515815260200191505060405180910390f35b611273600480360360408110156111b357600080fd5b81019080803590602001906401000000008111156111d057600080fd5b8201836020820111156111e257600080fd5b8035906020019184602083028401116401000000008311171561120457600080fd5b919080806020026020016040519081016040528093929190818152602001838360200280828437600081840152601f19601f820116905080830192505050505050509192919290803573ffffffffffffffffffffffffffffffffffffffff1690602001909291905050506120b6565b604051808215151515815260200191505060405180910390f35b600060336000837bffffffffffffffffffffffffffffffffffffffffffffffffffffffff19167bffffffffffffffffffffffffffffffffffffffffffffffffffffffff1916815260200190815260200160002060009054906101000a900460ff169050919050565b6112ff8133612143565b50565b60606101398054600181600116156101000203166002900480601f01602080910402602001604051908101604052809291908181526020018280546001816001161561010002031660029004801561139b5780601f106113705761010080835404028352916020019161139b565b820191906000526020600020905b81548152906001019060200180831161137e57829003601f168201915b5050505050905090565b60006113b0826121b0565b6113b957600080fd5b6067600083815260200190815260200160002060009054906101000a900473ffffffffffffffffffffffffffffffffffffffff169050919050565b61010660009054906101000a900460ff161561140f57600080fd5b6114198282612222565b5050565b600061013d6000838152602001908152602001600020549050919050565b611444336114b1565b61144d57600080fd5b6114578282612143565b5050565b611464336114b1565b61146d57600080fd5b61147681612363565b50565b6000609e80549050905090565b61010660009054906101000a900460ff16156114a157600080fd5b6114ac8383836123bd565b505050565b60006114c78260d26123e090919063ffffffff16565b9050919050565b600061010660009054906101000a900460ff16156114eb57600080fd5b826114f6813361155e565b6114ff57600080fd5b60008090505b8351811015611540576115348582600161013c54010186848151811061152757fe5b6020026020010151612472565b50806001019050611505565b50825161013c60008282540192505081905550600191505092915050565b6000611569826114b1565b8061159557506115948260d360008681526020019081526020016000206123e090919063ffffffff16565b5b905092915050565b60006115a88361185b565b82106115b357600080fd5b609c60008473ffffffffffffffffffffffffffffffffffffffff1673ffffffffffffffffffffffffffffffffffffffff16815260200190815260200160002082815481106115fd57fe5b9060005260206000200154905092915050565b611619336114b1565b61162257600080fd5b61010660009054906101000a900460ff1661163c57600080fd5b600061010660006101000a81548160ff0219169083151502179055507f5db9ee0a495bf2e6ff9c91a7834c1ba4fdd244a5e8aa4e537bd38aeae4b073aa33604051808273ffffffffffffffffffffffffffffffffffffffff1673ffffffffffffffffffffffffffffffffffffffff16815260200191505060405180910390a1565b6116d883838360405180602001604052806000815250611d8f565b505050565b6116e733826124e1565b806116f757506116f6336114b1565b5b61170057600080fd5b61170981612576565b50565b6000611716611479565b821061172157600080fd5b609e828154811061172e57fe5b90600052602060002001549050919050565b611749336114b1565b61175257600080fd5b61010660009054906101000a900460ff161561176d57600080fd5b8061013b9080519060200190611784929190613d44565b5050565b600061010660009054906101000a900460ff16905090565b6000806066600084815260200190815260200160002060009054906101000a900473ffffffffffffffffffffffffffffffffffffffff169050600073ffffffffffffffffffffffffffffffffffffffff168173ffffffffffffffffffffffffffffffffffffffff16141561181357600080fd5b80915050919050565b600080611829848461159d565b91506118348261141d565b90509250929050565b611846336114b1565b61184f57600080fd5b6118588161258b565b50565b60008073ffffffffffffffffffffffffffffffffffffffff168273ffffffffffffffffffffffffffffffffffffffff16141561189657600080fd5b606860008373ffffffffffffffffffffffffffffffffffffffff1673ffffffffffffffffffffffffffffffffffffffff168152602001908152602001600020549050919050565b600060019054906101000a900460ff16806118fc57506118fb6125e5565b5b8061191357506000809054906101000a900460ff16155b611968576040517f08c379a000000000000000000000000000000000000000000000000000000000815260040180806020018281038252602e815260200180613e16602e913960400191505060405180910390fd5b60008060019054906101000a900460ff1690506001600060016101000a81548160ff02191690831515021790555060016000806101000a81548160ff021916908315150217905550600061010660006101000a81548160ff02191690831515021790555080600060016101000a81548160ff02191690831515021790555050565b6119f2336114b1565b6119fb57600080fd5b61010660009054906101000a900460ff1615611a1657600080fd5b600161010660006101000a81548160ff0219169083151502179055507f62e78cea01bee320cd4e420270b5ea74000d11b0c9f74754ebdbfc544b05a25833604051808273ffffffffffffffffffffffffffffffffffffffff1673ffffffffffffffffffffffffffffffffffffffff16815260200191505060405180910390a1565b611aa033612363565b565b600060019054906101000a900460ff1680611ac15750611ac06125e5565b5b80611ad857506000809054906101000a900460ff16155b611b2d576040517f08c379a000000000000000000000000000000000000000000000000000000000815260040180806020018281038252602e815260200180613e16602e913960400191505060405180910390fd5b60008060019054906101000a900460ff1690506001600060016101000a81548160ff02191690831515021790555060016000806101000a81548160ff021916908315150217905550611b7d6125f6565b611b856126fe565b611b8e33611db5565b611b966118dd565b60008090505b8251811015611bcc57611bc1838281518110611bb457fe5b602002602001015161258b565b806001019050611b9c565b50846101399080519060200190611be4929190613d44565b508361013a9080519060200190611bfc929190613d44565b508261013b9080519060200190611c14929190613d44565b50611c25635b5e139f60e01b61280f565b80600060016101000a81548160ff0219169083151502179055505050505050565b606061013a8054600181600116156101000203166002900480601f016020809104026020016040519081016040528092919081815260200182805460018160011615610100020316600290048015611cdf5780601f10611cb457610100808354040283529160200191611cdf565b820191906000526020600020905b815481529060010190602001808311611cc257829003601f168201915b5050505050905090565b81611cf4813361155e565b611cfd57600080fd5b611d0783836128af565b505050565b600061010660009054906101000a900460ff1615611d2957600080fd5b82611d34813361155e565b611d3d57600080fd5b600161013c60008282540192505081905550611d5d8461013c5485612472565b91505092915050565b61010660009054906101000a900460ff1615611d8157600080fd5b611d8b828261291c565b5050565b611d9a848484611486565b611da684848484612a56565b611daf57600080fd5b50505050565b600060019054906101000a900460ff1680611dd45750611dd36125e5565b5b80611deb57506000809054906101000a900460ff16155b611e40576040517f08c379a000000000000000000000000000000000000000000000000000000000815260040180806020018281038252602e815260200180613e16602e913960400191505060405180910390fd5b60008060019054906101000a900460ff1690506001600060016101000a81548160ff02191690831515021790555060016000806101000a81548160ff021916908315150217905550611e91826114b1565b611e9f57611e9e8261258b565b5b80600060016101000a81548160ff0219169083151502179055505050565b6060600061013d6000848152602001908152602001600020549050611fd461013b8054600181600116156101000203166002900480601f016020809104026020016040519081016040528092919081815260200182805460018160011615610100020316600290048015611f725780601f10611f4757610100808354040283529160200191611f72565b820191906000526020600020905b815481529060010190602001808311611f5557829003601f168201915b5050505050611f8083612c3f565b6040518060400160405280600181526020017f2f00000000000000000000000000000000000000000000000000000000000000815250611fbf87612c3f565b60405180602001604052806000815250612d6c565b915050919050565b600061010660009054906101000a900460ff1615611ff957600080fd5b83612004813361155e565b61200d57600080fd5b612018858585612472565b9150509392505050565b6000606960008473ffffffffffffffffffffffffffffffffffffffff1673ffffffffffffffffffffffffffffffffffffffff16815260200190815260200160002060008373ffffffffffffffffffffffffffffffffffffffff1673ffffffffffffffffffffffffffffffffffffffff16815260200190815260200160002060009054906101000a900460ff16905092915050565b600061010660009054906101000a900460ff16156120d357600080fd5b6120dc336114b1565b6120e557600080fd5b60008090505b83518110156121265761211a84828151811061210357fe5b602002602001015182600161013c54010185612472565b508060010190506120eb565b50825161013c600082825401925050819055506001905092915050565b6121688160d3600085815260200190815260200160002061302e90919063ffffffff16565b8073ffffffffffffffffffffffffffffffffffffffff16827fb6882c4d609d560f6d57e78e73dd96027f0d9852739b0b922537a6dd3c8e944c60405160405180910390a35050565b6000806066600084815260200190815260200160002060009054906101000a900473ffffffffffffffffffffffffffffffffffffffff169050600073ffffffffffffffffffffffffffffffffffffffff168173ffffffffffffffffffffffffffffffffffffffff161415915050919050565b600061222d826117a0565b90508073ffffffffffffffffffffffffffffffffffffffff168373ffffffffffffffffffffffffffffffffffffffff16141561226857600080fd5b8073ffffffffffffffffffffffffffffffffffffffff163373ffffffffffffffffffffffffffffffffffffffff1614806122a857506122a78133612022565b5b6122b157600080fd5b826067600084815260200190815260200160002060006101000a81548173ffffffffffffffffffffffffffffffffffffffff021916908373ffffffffffffffffffffffffffffffffffffffff160217905550818373ffffffffffffffffffffffffffffffffffffffff168273ffffffffffffffffffffffffffffffffffffffff167f8c5be1e5ebec7d5bd14f71427d1e84f3dd0314c0f7b2291e5b200ac8c7c3b92560405160405180910390a4505050565b6123778160d261302e90919063ffffffff16565b8073ffffffffffffffffffffffffffffffffffffffff167fa3b62bc36326052d97ea62d63c3d60308ed4c3ea8ac079dd8499f1e9c4f80c0f60405160405180910390a250565b6123c733826124e1565b6123d057600080fd5b6123db8383836130d9565b505050565b60008073ffffffffffffffffffffffffffffffffffffffff168273ffffffffffffffffffffffffffffffffffffffff16141561241b57600080fd5b8260000160008373ffffffffffffffffffffffffffffffffffffffff1673ffffffffffffffffffffffffffffffffffffffff16815260200190815260200160002060009054906101000a900460ff16905092915050565b600061247e82846130fd565b8361013d6000858152602001908152602001600020819055507f4b3711cd7ece062b0828c1b6e08d814a72d4c003383a016c833cbb1b45956e348484604051808381526020018281526020019250505060405180910390a1600190509392505050565b6000806124ed836117a0565b90508073ffffffffffffffffffffffffffffffffffffffff168473ffffffffffffffffffffffffffffffffffffffff16148061255c57508373ffffffffffffffffffffffffffffffffffffffff16612544846113a5565b73ffffffffffffffffffffffffffffffffffffffff16145b8061256d575061256c8185612022565b5b91505092915050565b612588612582826117a0565b8261311e565b50565b61259f8160d261314490919063ffffffff16565b8073ffffffffffffffffffffffffffffffffffffffff167f44d6d25963f097ad14f29f06854a01f575648a1ef82f30e562ccd3889717e33960405160405180910390a250565b600080303b90506000811491505090565b600060019054906101000a900460ff168061261557506126146125e5565b5b8061262c57506000809054906101000a900460ff16155b612681576040517f08c379a000000000000000000000000000000000000000000000000000000000815260040180806020018281038252602e815260200180613e16602e913960400191505060405180910390fd5b60008060019054906101000a900460ff1690506001600060016101000a81548160ff02191690831515021790555060016000806101000a81548160ff0219169083151502179055506126d16131f0565b6126e16380ac58cd60e01b61280f565b80600060016101000a81548160ff02191690831515021790555050565b600060019054906101000a900460ff168061271d575061271c6125e5565b5b8061273457506000809054906101000a900460ff16155b612789576040517f08c379a000000000000000000000000000000000000000000000000000000000815260040180806020018281038252602e815260200180613e16602e913960400191505060405180910390fd5b60008060019054906101000a900460ff1690506001600060016101000a81548160ff02191690831515021790555060016000806101000a81548160ff0219169083151502179055506127d96132f0565b6127e257600080fd5b6127f263780e9d6360e01b61280f565b80600060016101000a81548160ff02191690831515021790555050565b63ffffffff60e01b817bffffffffffffffffffffffffffffffffffffffffffffffffffffffff1916141561284257600080fd5b600160336000837bffffffffffffffffffffffffffffffffffffffffffffffffffffffff19167bffffffffffffffffffffffffffffffffffffffffffffffffffffffff1916815260200190815260200160002060006101000a81548160ff02191690831515021790555050565b6128d48160d3600085815260200190815260200160002061314490919063ffffffff16565b8073ffffffffffffffffffffffffffffffffffffffff16827fe1bd660d9f7c60e6fb12dd6479fdde12d21fc96385dc7b9b022c0b2f319e739160405160405180910390a35050565b3373ffffffffffffffffffffffffffffffffffffffff168273ffffffffffffffffffffffffffffffffffffffff16141561295557600080fd5b80606960003373ffffffffffffffffffffffffffffffffffffffff1673ffffffffffffffffffffffffffffffffffffffff16815260200190815260200160002060008473ffffffffffffffffffffffffffffffffffffffff1673ffffffffffffffffffffffffffffffffffffffff16815260200190815260200160002060006101000a81548160ff0219169083151502179055508173ffffffffffffffffffffffffffffffffffffffff163373ffffffffffffffffffffffffffffffffffffffff167f17307eab39ab6107e8899845ad3d59bd9653f200f220920489ca2b5937696c3183604051808215151515815260200191505060405180910390a35050565b6000612a778473ffffffffffffffffffffffffffffffffffffffff16613307565b612a845760019050612c37565b60008473ffffffffffffffffffffffffffffffffffffffff1663150b7a02338887876040518563ffffffff1660e01b8152600401808573ffffffffffffffffffffffffffffffffffffffff1673ffffffffffffffffffffffffffffffffffffffff1681526020018473ffffffffffffffffffffffffffffffffffffffff1673ffffffffffffffffffffffffffffffffffffffff16815260200183815260200180602001828103825283818151815260200191508051906020019080838360005b83811015612b5f578082015181840152602081019050612b44565b50505050905090810190601f168015612b8c5780820380516001836020036101000a031916815260200191505b5095505050505050602060405180830381600087803b158015612bae57600080fd5b505af1158015612bc2573d6000803e3d6000fd5b505050506040513d6020811015612bd857600080fd5b8101908080519060200190929190505050905063150b7a0260e01b7bffffffffffffffffffffffffffffffffffffffffffffffffffffffff1916817bffffffffffffffffffffffffffffffffffffffffffffffffffffffff1916149150505b949350505050565b60606000821415612c87576040518060400160405280600181526020017f30000000000000000000000000000000000000000000000000000000000000008152509050612d67565b600082905060005b60008214612cb1578080600101915050600a8281612ca957fe5b049150612c8f565b6060816040519080825280601f01601f191660200182016040528015612ce65781602001600182028038833980820191505090505b50905060006001830390505b60008614612d5f57600a8681612d0457fe5b0660300160f81b82828060019003935081518110612d1e57fe5b60200101907effffffffffffffffffffffffffffffffffffffffffffffffffffffffffffff1916908160001a905350600a8681612d5757fe5b049550612cf2565b819450505050505b919050565b6060808690506060869050606086905060608690506060869050606081518351855187518951010101016040519080825280601f01601f191660200182016040528015612dc85781602001600182028038833980820191505090505b509050606081905060008090506000809050600090505b8851811015612e4d57888181518110612df457fe5b602001015160f81c60f81b838380600101945081518110612e1157fe5b60200101907effffffffffffffffffffffffffffffffffffffffffffffffffffffffffffff1916908160001a9053508080600101915050612ddf565b600090505b8751811015612ec057878181518110612e6757fe5b602001015160f81c60f81b838380600101945081518110612e8457fe5b60200101907effffffffffffffffffffffffffffffffffffffffffffffffffffffffffffff1916908160001a9053508080600101915050612e52565b600090505b8651811015612f3357868181518110612eda57fe5b602001015160f81c60f81b838380600101945081518110612ef757fe5b60200101907effffffffffffffffffffffffffffffffffffffffffffffffffffffffffffff1916908160001a9053508080600101915050612ec5565b600090505b8551811015612fa657858181518110612f4d57fe5b602001015160f81c60f81b838380600101945081518110612f6a57fe5b60200101907effffffffffffffffffffffffffffffffffffffffffffffffffffffffffffff1916908160001a9053508080600101915050612f38565b600090505b845181101561301957848181518110612fc057fe5b602001015160f81c60f81b838380600101945081518110612fdd57fe5b60200101907effffffffffffffffffffffffffffffffffffffffffffffffffffffffffffff1916908160001a9053508080600101915050612fab565b82995050505050505050505095945050505050565b600073ffffffffffffffffffffffffffffffffffffffff168173ffffffffffffffffffffffffffffffffffffffff16141561306857600080fd5b61307282826123e0565b61307b57600080fd5b60008260000160008373ffffffffffffffffffffffffffffffffffffffff1673ffffffffffffffffffffffffffffffffffffffff16815260200190815260200160002060006101000a81548160ff0219169083151502179055505050565b6130e483838361331a565b6130ee838261357b565b6130f88282613719565b505050565b61310782826137e0565b6131118282613719565b61311a81613975565b5050565b61312882826139c1565b61013d6000828152602001908152602001600020600090555050565b600073ffffffffffffffffffffffffffffffffffffffff168173ffffffffffffffffffffffffffffffffffffffff16141561317e57600080fd5b61318882826123e0565b1561319257600080fd5b60018260000160008373ffffffffffffffffffffffffffffffffffffffff1673ffffffffffffffffffffffffffffffffffffffff16815260200190815260200160002060006101000a81548160ff0219169083151502179055505050565b600060019054906101000a900460ff168061320f575061320e6125e5565b5b8061322657506000809054906101000a900460ff16155b61327b576040517f08c379a000000000000000000000000000000000000000000000000000000000815260040180806020018281038252602e815260200180613e16602e913960400191505060405180910390fd5b60008060019054906101000a900460ff1690506001600060016101000a81548160ff02191690831515021790555060016000806101000a81548160ff0219169083151502179055506132d36301ffc9a760e01b61280f565b80600060016101000a81548160ff02191690831515021790555050565b60006133026380ac58cd60e01b61128d565b905090565b600080823b905060008111915050919050565b8273ffffffffffffffffffffffffffffffffffffffff1661333a826117a0565b73ffffffffffffffffffffffffffffffffffffffff161461335a57600080fd5b600073ffffffffffffffffffffffffffffffffffffffff168273ffffffffffffffffffffffffffffffffffffffff16141561339457600080fd5b61339d816139fb565b6133f06001606860008673ffffffffffffffffffffffffffffffffffffffff1673ffffffffffffffffffffffffffffffffffffffff16815260200190815260200160002054613ab990919063ffffffff16565b606860008573ffffffffffffffffffffffffffffffffffffffff1673ffffffffffffffffffffffffffffffffffffffff168152602001908152602001600020819055506134866001606860008573ffffffffffffffffffffffffffffffffffffffff1673ffffffffffffffffffffffffffffffffffffffff16815260200190815260200160002054613ad990919063ffffffff16565b606860008473ffffffffffffffffffffffffffffffffffffffff1673ffffffffffffffffffffffffffffffffffffffff16815260200190815260200160002081905550816066600083815260200190815260200160002060006101000a81548173ffffffffffffffffffffffffffffffffffffffff021916908373ffffffffffffffffffffffffffffffffffffffff160217905550808273ffffffffffffffffffffffffffffffffffffffff168473ffffffffffffffffffffffffffffffffffffffff167fddf252ad1be2c89b69c2b068fc378daa952ba7f163c4a11628f55a4df523b3ef60405160405180910390a4505050565b60006135d36001609c60008673ffffffffffffffffffffffffffffffffffffffff1673ffffffffffffffffffffffffffffffffffffffff16815260200190815260200160002080549050613ab990919063ffffffff16565b90506000609d60008481526020019081526020016000205490508181146136c0576000609c60008673ffffffffffffffffffffffffffffffffffffffff1673ffffffffffffffffffffffffffffffffffffffff168152602001908152602001600020838154811061364057fe5b9060005260206000200154905080609c60008773ffffffffffffffffffffffffffffffffffffffff1673ffffffffffffffffffffffffffffffffffffffff168152602001908152602001600020838154811061369857fe5b906000526020600020018190555081609d600083815260200190815260200160002081905550505b609c60008573ffffffffffffffffffffffffffffffffffffffff1673ffffffffffffffffffffffffffffffffffffffff1681526020019081526020016000208054809190600190036137129190613dc4565b5050505050565b609c60008373ffffffffffffffffffffffffffffffffffffffff1673ffffffffffffffffffffffffffffffffffffffff16815260200190815260200160002080549050609d600083815260200190815260200160002081905550609c60008373ffffffffffffffffffffffffffffffffffffffff1673ffffffffffffffffffffffffffffffffffffffff1681526020019081526020016000208190806001815401808255809150509060018203906000526020600020016000909192909190915055505050565b600073ffffffffffffffffffffffffffffffffffffffff168273ffffffffffffffffffffffffffffffffffffffff16141561381a57600080fd5b613823816121b0565b1561382d57600080fd5b816066600083815260200190815260200160002060006101000a81548173ffffffffffffffffffffffffffffffffffffffff021916908373ffffffffffffffffffffffffffffffffffffffff1602179055506138d26001606860008573ffffffffffffffffffffffffffffffffffffffff1673ffffffffffffffffffffffffffffffffffffffff16815260200190815260200160002054613ad990919063ffffffff16565b606860008473ffffffffffffffffffffffffffffffffffffffff1673ffffffffffffffffffffffffffffffffffffffff16815260200190815260200160002081905550808273ffffffffffffffffffffffffffffffffffffffff16600073ffffffffffffffffffffffffffffffffffffffff167fddf252ad1be2c89b69c2b068fc378daa952ba7f163c4a11628f55a4df523b3ef60405160405180910390a45050565b609e80549050609f600083815260200190815260200160002081905550609e81908060018154018082558091505090600182039060005260206000200160009091929091909150555050565b6139cb8282613af8565b6139d5828261357b565b6000609d6000838152602001908152602001600020819055506139f781613c8a565b5050565b600073ffffffffffffffffffffffffffffffffffffffff166067600083815260200190815260200160002060009054906101000a900473ffffffffffffffffffffffffffffffffffffffff1673ffffffffffffffffffffffffffffffffffffffff1614613ab65760006067600083815260200190815260200160002060006101000a81548173ffffffffffffffffffffffffffffffffffffffff021916908373ffffffffffffffffffffffffffffffffffffffff1602179055505b50565b600082821115613ac857600080fd5b600082840390508091505092915050565b600080828401905083811015613aee57600080fd5b8091505092915050565b8173ffffffffffffffffffffffffffffffffffffffff16613b18826117a0565b73ffffffffffffffffffffffffffffffffffffffff1614613b3857600080fd5b613b41816139fb565b613b946001606860008573ffffffffffffffffffffffffffffffffffffffff1673ffffffffffffffffffffffffffffffffffffffff16815260200190815260200160002054613ab990919063ffffffff16565b606860008473ffffffffffffffffffffffffffffffffffffffff1673ffffffffffffffffffffffffffffffffffffffff1681526020019081526020016000208190555060006066600083815260200190815260200160002060006101000a81548173ffffffffffffffffffffffffffffffffffffffff021916908373ffffffffffffffffffffffffffffffffffffffff16021790555080600073ffffffffffffffffffffffffffffffffffffffff168373ffffffffffffffffffffffffffffffffffffffff167fddf252ad1be2c89b69c2b068fc378daa952ba7f163c4a11628f55a4df523b3ef60405160405180910390a45050565b6000613ca56001609e80549050613ab990919063ffffffff16565b90506000609f60008481526020019081526020016000205490506000609e8381548110613cce57fe5b9060005260206000200154905080609e8381548110613ce957fe5b906000526020600020018190555081609f600083815260200190815260200160002081905550609e805480919060019003613d249190613dc4565b506000609f60008681526020019081526020016000208190555050505050565b828054600181600116156101000203166002900490600052602060002090601f016020900481019282601f10613d8557805160ff1916838001178555613db3565b82800160010185558215613db3579182015b82811115613db2578251825591602001919060010190613d97565b5b509050613dc09190613df0565b5090565b815481835581811115613deb57818360005260206000209182019101613dea9190613df0565b5b505050565b613e1291905b80821115613e0e576000816000905550600101613df6565b5090565b9056fe436f6e747261637420696e7374616e63652068617320616c7265616479206265656e20696e697469616c697a6564a265627a7a7231582028ec557c5e3d8a41e0ddb345b5a84ccaf2899de5bf67e533902f69179269c7c364736f6c63430005100032",
    "source": "pragma solidity ^0.5.0;\n\nimport \"zos-lib/contracts/Initializable.sol\";\nimport \"openzeppelin-eth/contracts/token/ERC721/ERC721.sol\";\nimport \"openzeppelin-eth/contracts/token/ERC721/ERC721Enumerable.sol\";\nimport \"openzeppelin-eth/contracts/token/ERC721/IERC721Metadata.sol\";\nimport \"./PoapRoles.sol\";\nimport \"./PoapPausable.sol\";\n\n\n// Desired Features\n// - Add Event\n// - Add Event Organizer\n// - Mint token for an event\n// - Batch Mint\n// - Burn Tokens (only admin?)\n// - Pause contract (only admin)\n// - ERC721 full interface (base, metadata, enumerable)\n\ncontract Poap is Initializable, ERC721, ERC721Enumerable, PoapRoles, PoapPausable {\n    event EventToken(uint256 eventId, uint256 tokenId);\n\n    // Token name\n    string private _name;\n\n    // Token symbol\n    string private _symbol;\n\n    // Base token URI\n    string private _baseURI;\n\n    // Last Used id (used to generate new ids)\n    uint256 private lastId;\n\n    // EventId for each token\n    mapping(uint256 => uint256) private _tokenEvent;\n\n\n    bytes4 private constant _INTERFACE_ID_ERC721_METADATA = 0x5b5e139f;\n\n    /**\n     * @dev Gets the token name\n     * @return string representing the token name\n     */\n    function name() external view returns (string memory) {\n        return _name;\n    }\n\n    /**\n     * @dev Gets the token symbol\n     * @return string representing the token symbol\n     */\n    function symbol() external view returns (string memory) {\n        return _symbol;\n    }\n\n    function tokenEvent(uint256 tokenId) public view returns (uint256) {\n        return _tokenEvent[tokenId];\n    }\n\n    /**\n     * @dev Gets the token ID at a given index of the tokens list of the requested owner\n     * @param owner address owning the tokens list to be accessed\n     * @param index uint256 representing the index to be accessed of the requested tokens list\n     * @return uint256 token ID at the given index of the tokens list owned by the requested address\n     */\n    function tokenDetailsOfOwnerByIndex(address owner, uint256 index) public view returns (uint256 tokenId, uint256 eventId) {\n        tokenId = tokenOfOwnerByIndex(owner, index);\n        eventId = tokenEvent(tokenId);\n    }\n\n    /**\n     * @dev Gets the token uri\n     * @return string representing the token uri\n     */\n    function tokenURI(uint256 tokenId) external view returns (string memory) {\n        uint eventId = _tokenEvent[tokenId];\n        return _strConcat(_baseURI, _uint2str(eventId), \"/\", _uint2str(tokenId), \"\");\n    }\n\n    function setBaseURI(string memory baseURI) public onlyAdmin whenNotPaused {\n        _baseURI = baseURI;\n    }\n\n    function approve(address to, uint256 tokenId) public whenNotPaused {\n        super.approve(to, tokenId);\n    }\n\n    function setApprovalForAll(address to, bool approved) public whenNotPaused {\n        super.setApprovalForAll(to, approved);\n    }\n\n    function transferFrom(address from, address to, uint256 tokenId) public whenNotPaused {\n        super.transferFrom(from, to, tokenId);\n    }\n\n    /**\n     * @dev Function to mint tokens\n     * @param eventId EventId for the new token\n     * @param to The address that will receive the minted tokens.\n     * @return A boolean that indicates if the operation was successful.\n     */\n    function mintToken(uint256 eventId, address to)\n    public whenNotPaused onlyEventMinter(eventId) returns (bool)\n    {\n        lastId += 1;\n        return _mintToken(eventId, lastId, to);\n    }\n\n    /**\n     * @dev Function to mint tokens with a specific id\n     * @param eventId EventId for the new token\n     * @param tokenId TokenId for the new token\n     * @param to The address that will receive the minted tokens.\n     * @return A boolean that indicates if the operation was successful.\n     */\n    function mintToken(uint256 eventId, uint256 tokenId, address to)\n    public whenNotPaused onlyEventMinter(eventId) returns (bool)\n    {\n        return _mintToken(eventId, tokenId, to);\n    }\n\n\n    /**\n     * @dev Function to mint tokens\n     * @param eventId EventId for the new token\n     * @param to The address that will receive the minted tokens.\n     * @return A boolean that indicates if the operation was successful.\n     */\n    function mintEventToManyUsers(uint256 eventId, address[] memory to)\n    public whenNotPaused onlyEventMinter(eventId) returns (bool)\n    {\n        for (uint256 i = 0; i < to.length; ++i) {\n            _mintToken(eventId, lastId + 1 + i, to[i]);\n        }\n        lastId += to.length;\n        return true;\n    }\n\n    /**\n     * @dev Function to mint tokens\n     * @param eventIds EventIds to assing to user\n     * @param to The address that will receive the minted tokens.\n     * @return A boolean that indicates if the operation was successful.\n     */\n    function mintUserToManyEvents(uint256[] memory eventIds, address to)\n    public whenNotPaused onlyAdmin() returns (bool)\n    {\n        for (uint256 i = 0; i < eventIds.length; ++i) {\n            _mintToken(eventIds[i], lastId + 1 + i, to);\n        }\n        lastId += eventIds.length;\n        return true;\n    }\n\n    /**\n     * @dev Burns a specific ERC721 token.\n     * @param tokenId uint256 id of the ERC721 token to be burned.\n     */\n    function burn(uint256 tokenId) public {\n        require(_isApprovedOrOwner(msg.sender, tokenId) || isAdmin(msg.sender));\n        _burn(tokenId);\n    }\n\n    function initialize(string memory __name, string memory __symbol, string memory __baseURI, address[] memory admins)\n    public initializer\n    {\n        ERC721.initialize();\n        ERC721Enumerable.initialize();\n        PoapRoles.initialize(msg.sender);\n        PoapPausable.initialize();\n\n        // Add the requested admins\n        for (uint256 i = 0; i < admins.length; ++i) {\n            _addAdmin(admins[i]);\n        }\n\n        _name = __name;\n        _symbol = __symbol;\n        _baseURI = __baseURI;\n\n        // register the supported interfaces to conform to ERC721 via ERC165\n        _registerInterface(_INTERFACE_ID_ERC721_METADATA);\n    }\n\n    /**\n     * @dev Internal function to burn a specific token\n     * Reverts if the token does not exist\n     *\n     * @param owner owner of the token to burn\n     * @param tokenId uint256 ID of the token being burned by the msg.sender\n     */\n    function _burn(address owner, uint256 tokenId) internal {\n        super._burn(owner, tokenId);\n\n        delete _tokenEvent[tokenId];\n    }\n\n    /**\n     * @dev Function to mint tokens\n     * @param eventId EventId for the new token\n     * @param tokenId The token id to mint.\n     * @param to The address that will receive the minted tokens.\n     * @return A boolean that indicates if the operation was successful.\n     */\n    function _mintToken(uint256 eventId, uint256 tokenId, address to) internal returns (bool) {\n        // TODO Verify that the token receiver ('to') do not have already a token for the event ('eventId')\n        _mint(to, tokenId);\n        _tokenEvent[tokenId] = eventId;\n        emit EventToken(eventId, tokenId);\n        return true;\n    }\n\n    /**\n     * @dev Function to convert uint to string\n     * Taken from https://github.com/oraclize/ethereum-api/blob/master/oraclizeAPI_0.5.sol\n     */\n    function _uint2str(uint _i) internal pure returns (string memory _uintAsString) {\n        if (_i == 0) {\n            return \"0\";\n        }\n        uint j = _i;\n        uint len;\n        while (j != 0) {\n            len++;\n            j /= 10;\n        }\n        bytes memory bstr = new bytes(len);\n        uint k = len - 1;\n        while (_i != 0) {\n            bstr[k--] = byte(uint8(48 + _i % 10));\n            _i /= 10;\n        }\n        return string(bstr);\n    }\n\n    /**\n     * @dev Function to concat strings\n     * Taken from https://github.com/oraclize/ethereum-api/blob/master/oraclizeAPI_0.5.sol\n     */\n    function _strConcat(string memory _a, string memory _b, string memory _c, string memory _d, string memory _e)\n    internal pure returns (string memory _concatenatedString)\n    {\n        bytes memory _ba = bytes(_a);\n        bytes memory _bb = bytes(_b);\n        bytes memory _bc = bytes(_c);\n        bytes memory _bd = bytes(_d);\n        bytes memory _be = bytes(_e);\n        string memory abcde = new string(_ba.length + _bb.length + _bc.length + _bd.length + _be.length);\n        bytes memory babcde = bytes(abcde);\n        uint k = 0;\n        uint i = 0;\n        for (i = 0; i < _ba.length; i++) {\n            babcde[k++] = _ba[i];\n        }\n        for (i = 0; i < _bb.length; i++) {\n            babcde[k++] = _bb[i];\n        }\n        for (i = 0; i < _bc.length; i++) {\n            babcde[k++] = _bc[i];\n        }\n        for (i = 0; i < _bd.length; i++) {\n            babcde[k++] = _bd[i];\n        }\n        for (i = 0; i < _be.length; i++) {\n            babcde[k++] = _be[i];\n        }\n        return string(babcde);\n    }\n\n    function removeAdmin(address account) public onlyAdmin {\n        _removeAdmin(account);\n    }\n\n}\n",
    "sourcePath": "/Users/jonathancai/Documents/git/poap-contracts/contracts/Poap.sol",
    "compiler": {
        "name": "solc",
        "version": "0.5.16+commit.9c3226ce.Emscripten.clang"
    },
    "schemaVersion": "3.4.3",
    "updatedAt": "2021-11-16T16:10:34.051Z",
    "devdoc": {
        "methods": {
            "balanceOf(address)": {
                "details": "Gets the balance of the specified address",
                "params": {
                    "owner": "address to query the balance of"
                },
                "return": "uint256 representing the amount owned by the passed address"
            },
            "burn(uint256)": {
                "details": "Burns a specific ERC721 token.",
                "params": {
                    "tokenId": "uint256 id of the ERC721 token to be burned."
                }
            },
            "getApproved(uint256)": {
                "details": "Gets the approved address for a token ID, or zero if no address set Reverts if the token ID does not exist.",
                "params": {
                    "tokenId": "uint256 ID of the token to query the approval of"
                },
                "return": "address currently approved for the given token ID"
            },
            "isApprovedForAll(address,address)": {
                "details": "Tells whether an operator is approved by a given owner",
                "params": {
                    "operator": "operator address which you want to query the approval of",
                    "owner": "owner address which you want to query the approval of"
                },
                "return": "bool whether the given operator is approved by the given owner"
            },
            "mintEventToManyUsers(uint256,address[])": {
                "details": "Function to mint tokens",
                "params": {
                    "eventId": "EventId for the new token",
                    "to": "The address that will receive the minted tokens."
                },
                "return": "A boolean that indicates if the operation was successful."
            },
            "mintToken(uint256,address)": {
                "details": "Function to mint tokens",
                "params": {
                    "eventId": "EventId for the new token",
                    "to": "The address that will receive the minted tokens."
                },
                "return": "A boolean that indicates if the operation was successful."
            },
            "mintToken(uint256,uint256,address)": {
                "details": "Function to mint tokens with a specific id",
                "params": {
                    "eventId": "EventId for the new token",
                    "to": "The address that will receive the minted tokens.",
                    "tokenId": "TokenId for the new token"
                },
                "return": "A boolean that indicates if the operation was successful."
            },
            "mintUserToManyEvents(uint256[],address)": {
                "details": "Function to mint tokens",
                "params": {
                    "eventIds": "EventIds to assing to user",
                    "to": "The address that will receive the minted tokens."
                },
                "return": "A boolean that indicates if the operation was successful."
            },
            "name()": {
                "details": "Gets the token name",
                "return": "string representing the token name"
            },
            "ownerOf(uint256)": {
                "details": "Gets the owner of the specified token ID",
                "params": {
                    "tokenId": "uint256 ID of the token to query the owner of"
                },
                "return": "owner address currently marked as the owner of the given token ID"
            },
            "pause()": {
                "details": "called by the owner to pause, triggers stopped state"
            },
            "paused()": {
                "return": "true if the contract is paused, false otherwise."
            },
            "safeTransferFrom(address,address,uint256)": {
                "details": "Safely transfers the ownership of a given token ID to another address If the target address is a contract, it must implement `onERC721Received`, which is called upon a safe transfer, and return the magic value `bytes4(keccak256(\"onERC721Received(address,address,uint256,bytes)\"))`; otherwise, the transfer is reverted.     * Requires the msg sender to be the owner, approved, or operator",
                "params": {
                    "from": "current owner of the token",
                    "to": "address to receive the ownership of the given token ID",
                    "tokenId": "uint256 ID of the token to be transferred"
                }
            },
            "safeTransferFrom(address,address,uint256,bytes)": {
                "details": "Safely transfers the ownership of a given token ID to another address If the target address is a contract, it must implement `onERC721Received`, which is called upon a safe transfer, and return the magic value `bytes4(keccak256(\"onERC721Received(address,address,uint256,bytes)\"))`; otherwise, the transfer is reverted. Requires the msg sender to be the owner, approved, or operator",
                "params": {
                    "_data": "bytes data to send along with a safe transfer check",
                    "from": "current owner of the token",
                    "to": "address to receive the ownership of the given token ID",
                    "tokenId": "uint256 ID of the token to be transferred"
                }
            },
            "supportsInterface(bytes4)": {
                "details": "implement supportsInterface(bytes4) using a lookup table"
            },
            "symbol()": {
                "details": "Gets the token symbol",
                "return": "string representing the token symbol"
            },
            "tokenByIndex(uint256)": {
                "details": "Gets the token ID at a given index of all the tokens in this contract Reverts if the index is greater or equal to the total number of tokens",
                "params": {
                    "index": "uint256 representing the index to be accessed of the tokens list"
                },
                "return": "uint256 token ID at the given index of the tokens list"
            },
            "tokenDetailsOfOwnerByIndex(address,uint256)": {
                "details": "Gets the token ID at a given index of the tokens list of the requested owner",
                "params": {
                    "index": "uint256 representing the index to be accessed of the requested tokens list",
                    "owner": "address owning the tokens list to be accessed"
                },
                "return": "uint256 token ID at the given index of the tokens list owned by the requested address"
            },
            "tokenOfOwnerByIndex(address,uint256)": {
                "details": "Gets the token ID at a given index of the tokens list of the requested owner",
                "params": {
                    "index": "uint256 representing the index to be accessed of the requested tokens list",
                    "owner": "address owning the tokens list to be accessed"
                },
                "return": "uint256 token ID at the given index of the tokens list owned by the requested address"
            },
            "tokenURI(uint256)": {
                "details": "Gets the token uri",
                "return": "string representing the token uri"
            },
            "totalSupply()": {
                "details": "Gets the total amount of tokens stored by the contract",
                "return": "uint256 representing the total amount of tokens"
            },
            "unpause()": {
                "details": "called by the owner to unpause, returns to normal state"
            }
        }
    },
    "userdoc": {
        "methods": {}
    }
}